:020000040800F2
:1000000000280020050A00084D0A00084D0A0008D3
:100010004D0A00084D0A00084D0A000800000000C3
:100020000000000000000000000000004D0A000871
:100030004D0A0008000000004D0A0008010A0008EF
:100040004D0A00084D0A00084D0A00084D0A000834
:100050004D0A00084D0A00084D0A00084D0A000824
:100060004D0A00084D0A00084D0A00084D0A000814
:100070004D0A00084D0A00084D0A00084D0A000804
:100080004D0A00084D0A00084D0A00084D0A0008F4
:100090004D0A00084D0A00084D0A00084D0A0008E4
:1000A0004D0A00084D0A00084D0A00084D0A0008D4
:1000B0004D0A00084D0A0008000000004D0A000823
:1000C0004D0A000800000000000000004D0A000872
:1000D000000000004D0A00084D0A00080000000062
:1000E0004D0A00084D0A00084D0A000800000000F3
:1000F0000000000000000000000000000000000000
:0C01000000000000000000005FF808F1A3
:10010C000348044B834202D0034B03B1184770479A
:10011C000C0000200C000020000000000548064BDD
:10012C001B1AD90F01EBA301491002D0034B03B1E9
:10013C00184770470C0000200C0000200000000045
:10014C0010B5064C237843B9FFF7DAFF044B13B113
:10015C000448AFF300800123237010BD1000002071
:10016C00000000004C1B000808B5044B1BB10449EF
:10017C000448AFF30080BDE80840CFE70000000062
:10018C00140000204C1B000808210B4B82B09A690C
:10019C0042F004029A619B69084A03F0040301933C
:1001AC00019B5161136823F4704343F400531360B3
:1001BC00516102B0704700BF0010024000080140BE
:1001CC0008B5FFF7E1FF72B630BFFDE730B50C465E
:1001DC008BB005461822002104A801F0CDFBE300EA
:1001EC009BB243F0040301934FF6FF714FF6FE737D
:1001FC000122CDE90213C4F34F3469460548059535
:10020C0007920094089200F008FDB0FA80F04009C3
:10021C000BB030BD4C00002008B5154B1548D3E988
:10022C00005400F095FD08B1FFF7CAFF4FF0E02332
:10023C0018615861986172B64FF0FF32830003F178
:10024C006043013003F561430828C3F88020C3F8EC
:10025C008021F3D1084B064A9A60002383F314885B
:10026C00BFF34F8FBFF36F8F85F30888204700BF14
:10027C00002000084C00002000ED00E070B58AB0B2
:10028C000C4605461822002104A801F075FB00233A
:10029C00CDE902331E4B22461B68089405930423B8
:1002AC001C4C294602A8069301F0B6FB23681A4A97
:1002BC0020469A6004A901AB02AA00F077FD10B1A8
:1002CC0000200AB070BD019B012B14D0022B14BF6F
:1002DC004FF400364FF4007600F00CFC0546019903
:1002EC000C4800F0D0FD40B92368986830400038C5
:1002FC0018BF0120E5E70226EEE700F0FBFB401BF0
:10030C001328ECD90199034800F099FDD8E700BFF8
:10031C00400000204C0000200101010007B58DF8C1
:10032C0004008DF8051001A80221FFF7A7FF03B008
:10033C005DF804FB38B58AB2002305460C4601462D
:10034C00012000F001FF034608B1002038BD012058
:10035C00220CA91C00F0F8FE0028F6D12868031B1B
:10036C0058425841F2E7000000214FF0FF3330B5FE
:10037C000B4D814201D1D84330BD01F1006202F531
:10038C00005212785340082213F0010418BF2C4677
:10039C00013A12F0FF0284EA5303F5D10131E8E788
:1003AC002083B8ED2DE9F04F0021044691B0AF4801
:1003BC0000F0F6FD18B9012011B0BDE8F08F002156
:1003CC00AA4803AB09AA00F06FFD002840F0CC81CD
:1003DC000B9B042BEFD10C9A002AECD1A4490A9B5D
:1003EC0009688B4240F00C819DF83430062B20D1EB
:1003FC009DF80C30012B40F05F819DF80D30012BE6
:10040C0040F05A819DF80E30072B40F055819DF835
:10041C000F30B02B40F050819DF81030AD2B40F0D8
:10042C004B819DF81130102B40F046810123237035
:10043C00C1E7082B58D19DF80C10022940F03C81E3
:10044C00012323709DF80D30BDF80E60012B049F25
:10045C0001D0852012E0731EB3F5B84F01D30321F0
:10046C00F7E7844C237863B1E36853B963689E4221
:10047C0007D1A368BB4204D101218020FFF74EFFB6
:10048C009AE700251022294605A8257001F074FA78
:10049C00029500F013FE78B934224FF00108764B28
:1004AC0002A9DA60754B059005A8CDE9073800F074
:1004BC00AFFE18B100F014FE0521CAE7704B02A97B
:1004CC00079306F2FF339B0A05A8089300F0A0FEE1
:1004DC00054600F005FE002DEED1C4E90167E5608C
:1004EC00258284F80080C7E7012B08D19DF80C10F9
:1004FC00042940F0E1805F4B81201A70BEE7052B88
:10050C0040F0DA809DF80C30032B40F0D580594D2B
:10051C002B781BB16F68E868B84201D0062198E7C8
:10052C00FFF722FFAB680446984214D084238DF861
:10053C001430030A8DF81630030C8DF81730002395
:10054C000521040E8DF815008DF818402B7005A8A8
:10055C00FFF794FE30E7DDF80D8000F0AFFD0028CA
:10056C0040F0B3803422444B39464648DA60FFF7FA
:10057C00E1FE002832D1002600F0B2FD0146002831
:10058C0040F0A380002E00F0A0803C4B3E4A18683F
:10059C00904240F09A805A68974240F096809A6850
:1005AC00944240F09280DB68984540F08E80832026
:1005BC002970FFF7B3FE00283FF4FEAE322000F0A6
:1005CC009FFABFF34F8F3149314BCA6802F4E06296
:1005DC001343CB60BFF34F8F00BFFDE721462D487F
:1005EC00FFF7A8FE0028C6D041462B48FFF7A2FE15
:1005FC000028C0D024492148FFF79CFE0646BBE7E3
:10060C00264A126893427FF4D6AE0123194D23700B
:10061C0095F800B09DF83440BBF1000F3FF47EAF6D
:10062C00E31E052B3FF67AAFB5F81080BDF80C90A1
:10063C00B8F1000F0FD008F1FF339BB299450AD1E6
:10064C0081238DF815904FEA19298DF814308DF807
:10065C00169003217BE7C14522D040F2824304214E
:10066C00ADF81430ADF8168071E700BF4C000020D7
:10067C00480000202C00002000200240007C0008D4
:10068C0000200008047C00084150503100ED00E0CF
:10069C000400FA05087C00080C7C000844000020CB
:1006AC006B68EE68023C9B1B062B88BF0623E4B2EA
:1006BC0098BFDBB29C4201D00121CAE606F100676B
:1006CC0016F0010607F5005702D000232B70F3E655
:1006DC00264B9F42F9D33A1903F5B8439A42F4D802
:1006EC0000F0ECFC0028F0D13422214B0DF10C0A67
:1006FC00DA60731CDBB2A3429AF8022036BF9AF878
:10070C00033042F47F4242EA03223946002301209F
:10071C00019200F019FD10BB3B88019A934221D144
:10072C000236F3B2A3420AF1020A07F10207E0D340
:10073C0000F0D6FC0028C8D1BBF1000FC5D0EB6887
:10074C004FEA18282344EB602B8A8DF8159001335F
:10075C002B8281238DF816808DF8143079E74FF0B9
:10076C00000BE5E78346E3E7002025E600200008C0
:10077C000020024030B591B0FFF706FD00F09CF967
:10078C00044628BB0146202207A801F0F5F82146B3
:10079C00142201A801F0F0F8012010230224CDE965
:1007AC000A034FF4601306A806940D940F9300F0FF
:1007BC005DFE68B90F23CDE901344FF48063214607
:1007CC00CDE90430039001A801F012F8044608B1F9
:1007DC00FFF7F6FCFFF7D8FC5C4BDA6942F080526D
:1007EC00DA61DA6902F080520192019ADA6942F018
:1007FC000062DA61DB6903F000630693069B00F08C
:10080C0029FE4BF20701524B5A6892B28A4206D12A
:10081C0041F2AD029C68A4B2A11A4C424C41002298
:10082C005A609A6000F01CFE8DF80340494C4A4B0C
:10083C0022689A421ED16068431EB3F5B84F19D294
:10084C00464B1A6802F16041B1F5205F12D892074D
:10085C0010D15B68DD070DD523F0010303F178435C
:10086C00A3F50053B3F5B84F04D2FFF77DFDA36891
:10087C00984202D001238DF80330394A394B3A485B
:10088C003A4912F8014B63408A4200FB03F3F8D15A
:10089C0023F07C43012B38BF0123354D43F04062DC
:1008AC00344C2A6043F080522260334A43F0A05308
:1008BC0032491360324B02220B6000234FF420208C
:1008CC00C1E901234FF44012C1E904022D4A084644
:1008DC00CB608A618B8300F025F900287FF478AF18
:1008EC002968FFF773FC00283FF472AF01202168E0
:1008FC00FFF76CFC00283FF46BAF204800F0FDF9CB
:10090C0000287FF465AF9DF80330BBB900F0F2F816
:10091C00044600F0EFF8031B632B04D99DF8033059
:10092C0063B9FFF779FC0DF10300FFF73BFD0028DD
:10093C003FF44EAF9DF80330002BEAD00DF10300CD
:10094C00FFF730FD0028F9D142E700BF001002404C
:10095C00006C0040007C0008415050310020000821
:10096C00E8F7FF1FC59D1C8193010001F4F7FF1FE1
:10097C004800002044000020400000204C000020D3
:10098C0000640040000101017FB500230268CDE93D
:10099C0003330593154B9A4225D103F5D633DA6907
:1009AC00134842F00072DA61DA6902A902F00072AF
:1009BC000092009A9A6942F004029A619B6903F0D2
:1009CC0004030193019B4FF40063029300F074FC49
:1009DC0002234FF48052CDE902230323044802A9D9
:1009EC00059300F069FC07B05DF804FB006400405F
:1009FC000008014000F072B800F024F80B480C49D4
:100A0C000C4A002302E0D458C4500433C4188C425E
:100A1C00F9D3094A094C002301E013600432A242C5
:100A2C00FBD300F081FFFFF7A5FE7047000000200C
:100A3C000C0000205C1B0008100000209800002017
:100A4C00FEE700000821084A936943F00403936110
:100A5C00A2F584325161136823F4704343F40053BC
:100A6C0013605161704700BF0010024070470000D6
:100A7C0038B50E4B05461A784FF47A73B3FBF2F384
:100A8C000B4A1068B0FBF3F000F0DCFA044658B9DE
:100A9C000F2D09D8024629464FF0FF3000F0A2FA7C
:100AAC002046044B1D6038BD0120FCE704000020EB
:100ABC000000002008000020074A08B51368032036
:100ACC0043F01003136000F07BFA0F20FFF7D0FF08
:100ADC00FFF7CCFF002008BD00200240034A044B66
:100AEC0011681B780B441360704700BF7400002022
:100AFC0004000020014B1868704700BF74000020F0
:100B0C0038B50446FFF7F6FF0546631C1EBF044BC1
:100B1C001B78E418FFF7EEFF431BA342FAD338BD52
:100B2C000400002038B5044600286ED090F8203020
:100B3C000BB9FFF729FF2268136843F00103136018
:100B4C00FFF7D8FF054623685A68D10751D51A68B4
:100B5C0022F002021A60FFF7CDFF054623685A689F
:100B6C00920754D4227E0020012A1A680CBF42F04E
:100B7C00800222F080021A60627E012A1A680CBF81
:100B8C0042F0400222F040021A60A27E012A1A684A
:100B9C000CBF42F0200222F020021A60E27E012AF1
:100BAC001A680CBF22F0100242F010021A60227F69
:100BBC00012A1A680CBF42F0080222F008021A60DF
:100BCC00627F012A1A680CBF42F0040222F0040270
:100BDC001A60D4E902210A4321690A4361690A4374
:100BEC00616801390A43DA610123606284F82030BC
:100BFC000CE0FFF77FFF401B0A28A4D9636A43F47B
:100C0C0000336362052384F82030012038BDFFF7E0
:100C1C0071FF401B0A28A1D9F0E770B590F820307D
:100C2C00013B012B63D803680120D3F8002242F06A
:100C3C000102C3F800224A69D3F81C5202F01F04C7
:100C4C00A04025EA0005C3F81C52CD69C44395BBEE
:100C5C00D3F80C52CE682540C3F80C528D8803EBA8
:100C6C00C20245EA0645C2F840528E680D8845EA34
:100C7C000645C2F844528A697ABBD3F80422224052
:100C8C00C3F804220A6962BBD3F814221440C3F8D7
:100C9C0014420A6A012A04BFD3F81C2202434FF003
:100CAC00000008BFC3F81C22D3F8002222F0010276
:100CBC00C3F8002270BD012DDDD1D3F80C520E68A3
:100CCC000543C3F80C528D8803EBC20245EA064576
:100CDC00C2F840528E688D89C9E7D3F804220243CA
:100CEC00CEE7D3F814220243C3F81422D1E7436AA7
:100CFC0043F4802343620120DCE738B590F82030C0
:100D0C000446012B1FD10223026880F8203013689F
:100D1C0023F001031360FFF7EDFE054623685868C6
:100D2C0010F0010001D1606238BDFFF7E3FE401BFB
:100D3C000A28F3D9636A43F400336362052384F809
:100D4C0020300120F0E7436A43F400234362F8E7C4
:100D5C0038B590F820300446022B22D10268136873
:100D6C0043F001031360FFF7C5FE054623685A687C
:100D7C00D20708D51A68002022F002021A6001235B
:100D8C0084F8203038BDFFF7B5FE401B0A28EDD99A
:100D9C00636A43F400336362052384F82030012036
:100DAC00F0E7436A43F480134362F8E7F0B590F838
:100DBC0020500468013D012DA6683CD816F0E05F78
:100DCC0033D00125C6F3016085401D60D1E902577F
:100DDC0000F1180315BB0D681B0147EA4557E75096
:100DEC0004EB0013050100200E692C44C3F8846148
:100DFC00097D012902BFD3F8841141F48071C3F835
:100E0C0084115168C4F88C111268C4F88821D3F885
:100E1C00802142F00102C3F88021F0BD4E683D43B1
:100E2C0045EAC6051B01E550DAE7436A43F40013B3
:100E3C0043620120F1E7436A43F48023F8E790F81A
:100E4C002030013B012B18D8CB0741BF02689368B7
:100E5C0043F0800393608A0741BF0268936843F4B0
:100E6C00004393604B0748BF02684FF0000042BF3D
:100E7C00936843F4000393607047436A43F4802300
:100E8C0043620120704790F82030013B012B09D8B8
:100E9C0003689B6803EA8163B3EB816F14BF012085
:100EAC000020704700207047F0B590F82040013CBE
:100EBC00012C71D8066841B9F468A40707D1436ABC
:100ECC0043F4001343620120F0BD3469F5E706EBEF
:100EDC000115D5F8B0710C0107F004079760002FCD
:100EEC0050D1D5F8B0717F0D1760D5F8B07126448C
:100EFC0007F00207D760D5F8B4713F074EBF08273B
:100F0C00D5F8B47107F00F071761D5F8B471D5F89F
:100F1C00B451C7F307272D0C97615561D6F8B8214A
:100F2C001A7002682244D2F8B821120A5A70026868
:100F3C002244D2F8B821120C9A7002682244D2F8DA
:100F4C00B821120EDA7002682244D2F8BC211A7150
:100F5C0002682244D2F8BC21120A5A710268224457
:100F6C00D2F8BC21120C9A7102682244D2F8BC212E
:100F7C00120EDA71036851B9DA6842F02002DA60B5
:100F8C000020A1E7D5F8B071FF085760ADE71A69EA
:100F9C0042F020021A61F3E7436A43F4802391E79D
:100FAC0090F82030013B012B07D8036819B9D86899
:100FBC0000F0030070471869FAE700207047000042
:100FCC0007490302CA6803F4E06322F4E0621204E6
:100FDC00120C134343F0BF6343F40033CB607047F0
:100FEC0000ED00E0154B30B5DC68C4F30224C4F10D
:100FFC000703251D042B28BF0423062D4FF0FF35B6
:10100C0094BF0024033C05FA03F321EA0303A54033
:10101C0022EA0502A340002843EA0203ACBF00F118
:10102C006040074A4FEA0313DBB2ABBF00F56140E7
:10103C0000F00F0080F80033135430BD00ED00E0D9
:10104C0014ED00E00138B0F1807F0BD24FF0E023BB
:10105C00F021054A586182F823100020072298617C
:10106C001A6170470120704700ED00E0114AD36807
:10107C0013F0100305D01049CB6943F00203CB6188
:10108C001023D268500706D50B4943F00403CA69F4
:10109C0042F00102CA61074AD169C90708D506485E
:1010AC00C16941F00401C161D16921F00101D16133
:1010BC00D36070470020024078000020064B18696E
:1010CC0010F0800007D0054A5A6002F188325A604D
:1010DC001869C0F3C0107047002002402301674517
:1010EC00034A0020136943F080031361704700BF6B
:1010FC000020024070B50546FFF7FCFC0646114C7B
:10110C00E368D80712D4E368990644BF2023E36050
:10111C00E368DA0606D4E369DB0703D4E06810F071
:10112C00040007D0FFF7A2FF012003E06B1CE7D0FF
:10113C000DB9032070BDFFF7DDFC801BA842DFD981
:10114C00F7E700BF002002402DE9F84FDFF894A02C
:10115C001F469AF818300546012B884691463FD019
:10116C0001234CF250308AF81830FFF7C3FF90BBC4
:10117C00012D03D0022D14BF042502250026334671
:10118C00DFF864B03401C4F12001A4F1200207FAA5
:10119C0001F129FA04F4CAF81C300C4327FA02F2C4
:1011AC001443DBF81020A4B242F00102CBF810205B
:1011BC004CF2503028F81640FFF79CFFDBF810205B
:1011CC0022F00102CBF8102028B90136F2B2954278
:1011DC004FF00003D6D800238AF81830BDE8F88FFA
:1011EC000220FBE778000020002002400022064B82
:1011FC00DA61064B1A6942F002021A6158611A69E7
:10120C0042F040021A617047780000200020024032
:10121C002DE9F041264F05463B7E8846012B44D0F4
:10122C0001243C7603684CF25030022B1AD1FFF7A4
:10123C0061FF20B1012000233B76BDE8F0811D4CFD
:10124C00F86123694CF2503043F0040323612369A5
:10125C0043F040032361FFF74DFF236923F00403A0
:10126C002361E8E7FFF746FF0028E3D14FF0FF3397
:10127C00C8F800302046AE680E4CD5E9023203EBBC
:10128C008223B342D7D93046FFF7B0FF4CF250302F
:10129C00FFF730FF236923F00203236110B1C8F874
:1012AC000060C8E706F58066E7E70220C5E700BFE7
:1012BC0078000020002002402DE9F74F00224FF06B
:1012CC000F0E1646DFF878C15E4B00F104080D686E
:1012DC0035FA06F402D103B0BDE8F08F012404FA0C
:1012EC0006F705EA070437EA050572D14D68032DA8
:1012FC0006D8013D022D7FD8DFE805F08F949A00C7
:10130C00122D00F0928066D8112D00F08880FF2CF1
:10131C0094BF8146C1464FEA8605D9F8007088BF54
:10132C00203D0EFA05FA27EA0A0702FA05F52F43C3
:10133C00C9F80070D1F8049019F0805F49D0DCF83E
:10134C00185026F0030745F00105CCF81850DCF8CE
:10135C00185007F1804705F00105019507F5803716
:10136C0006F0030A019D4FEA8A0ABD680EFA0AFBD1
:10137C0025EA0B0B344DA8425ED005F58065A842DA
:10138C005CD005F58065A84214BF0325022505FA3B
:10139C000AF545EA0B05BD609D6819F4801F14BF62
:1013AC002543A5439D60DD6819F4001F14BF254338
:1013BC00A543DD605D6819F4003F14BF2543A543C8
:1013CC005D601D6819F4803F14BF2C4325EA0404AA
:1013DC001C6001367BE7DFF874904D450CD015D8B6
:1013EC00A9F580194D4507D009F570294D4503D055
:1013FC00A9F580194D458AD18A68DAB1012A08BF4E
:10140C0007614FF0080218BF476180E7DFF8409092
:10141C004D45F1D009F58039ECE7CA6877E7CA6821
:10142C00043274E7CA68083271E7CA680C326EE796
:10143C0000226CE704226AE70025A8E70125A6E74D
:10144C00001002400004014000080140000022107E
:10145C00000031100122014B1A62704700000E424D
:10146C000022014B1A62704700000E422DE9F34135
:10147C00054638B30368DB0710D42B689F075ED48E
:10148C002B68190700F195802B685A0700F1C18071
:10149C00EB69002B40F02C81002029E0904C636814
:1014AC0003F00C03042B07D0636803F00C03082B28
:1014BC000AD16368DE0307D523689C03DDD56B680E
:1014CC00002BDAD1012013E06B68B3F5803F12D109
:1014DC00236843F480332360FFF70CFB0646236834
:1014EC009803CAD4FFF706FB801B6428F7D90320A6
:1014FC0002B0BDE8F0819BB9236823F480332360EC
:10150C00236823F480232360FFF7F4FA064623684C
:10151C009903B2D5FFF7EEFA801B6428F7D9E6E7FA
:10152C00B3F5A02F236803D143F480232360CFE7C6
:10153C0023F480332360236823F48023CBE7684CA7
:10154C00636813F00C0F07D0636803F00C03082BCF
:10155C0010D16368DA030DD423689B0702D52B697D
:10156C00012BAFD123686A6923F0F80343EAC20365
:10157C00236085E72A695B4B6AB101221A60FFF789
:10158C00B9FA064623689F07ECD4FFF7B3FA801B21
:10159C000228F7D9ABE71A60FFF7ACFA06462368C6
:1015AC0098077FF56DAFFFF7A5FA801B0228F6D9D7
:1015BC009DE7AA694A4E4B4BE2B10122C3F8802445
:1015CC00FFF798FA0446736A9B070DD54FF4FA524D
:1015DC00454B1B68B3FBF2F3019300BF019B5A1EF2
:1015EC000192002BF9D14FE7FFF784FA001B022878
:1015FC00E9D97CE7C3F88024FFF77CFA0446736AC8
:10160C009F077FF541AFFFF775FA001B0228F6D94B
:10161C006DE7334CE369D80024D40127E36943F028
:10162C008053E361E36903F080530093009B2F4EDA
:10163C003368D90518D5EB68012B26D1236A43F002
:10164C0001032362FFF756FA41F288380646236AF3
:10165C009B073FD5002F3FF41BAFE36923F080536A
:10166C00E36115E70027E2E7336843F480733360E6
:10167C00FFF740FA80463368DA05DCD4FFF73AFA14
:10168C00A0EB08006428F6D931E7ABB9236A41F224
:10169C00883823F001032362236A23F004032362B6
:1016AC00FFF728FA0646236A9807D3D5FFF722FAE4
:1016BC00801B4045F7D91AE7052B236A03D143F069
:1016CC0004032362BAE723F001032362236A23F0A5
:1016DC000403B6E7FFF70EFA801B4045B7D906E7BF
:1016EC000010024000004242000000200070004048
:1016FC002A4C626802F00C02082A3ED00022022B0F
:10170C00274B1A662CD1FFF7F5F906462368990189
:10171C0020D42B6AB3F5803F05D16268A96822F406
:10172C0000320A436260696A62680B4322F47412E5
:10173C001343012263601A4B1A66FFF7DBF9054667
:10174C0023689A013FF5A8AEFFF7D4F9401B022895
:10175C00F6D9CCE6FFF7CEF9801B0228D6D9C6E61F
:10176C00FFF7C8F9054623689B017FF595AEFFF797
:10177C00C1F9401B0228F6D9B9E6012B3FF4A2AE01
:10178C0060682B6A00F480329A427FF49BAE6B6ADD
:10179C0000F47010C01A18BF0120A9E60010024016
:1017AC00000042420D4A536803F00C01082912D183
:1017BC000B48C3F38341DB03405C09D55368094AEA
:1017CC00C3F340435043084AD35CB0FBF3F070477B
:1017DC00064B584370470348704700BF0010024047
:1017EC003A1B000800127A00381B000800093D0063
:1017FC002DE9F0410D46044610B90120BDE8F081F9
:10180C00444A136803F007038B4228D321688E07E0
:10181C0030D4CA0743D43F4A136803F00703AB42E2
:10182C0065D822683C4D12F0040F6CD1130706D515
:10183C006B68226923F4605343EAC2036B60FFF7C1
:10184C00B1FF6B68354AC3F30313D35CD840344BF8
:10185C001860344B1868FFF70BF90020CEE71368BB
:10186C0023F007030B431360136803F007038B4249
:10187C00C3D1CBE7284B11F0040F1EBF5A6842F4BA
:10188C00E0625A60080742BF5A6842F460525A60DC
:10189C005A68A06822F0F00202435A60B9E7626805
:1018AC001D4E012A33681AD113F4003FA5D073687A
:1018BC0041F2883823F0030313437360FFF71AF9DE
:1018CC0007467368626803F00C03B3EB820FA2D077
:1018DC00FFF710F9C01B4045F3D903208EE7022A0D
:1018EC0002D113F0007FE1E713F0020FDEE713687B
:1018FC0023F007032B431360136803F00703AB4279
:10190C007FF47BAF8DE76B68E16823F4E0630B43F6
:10191C006B608BE70020024000100240281B00087F
:10192C00000000200800002070B50F4B0F4DAB429B
:10193C00A3EB050607D00024B61055F8043B013480
:10194C009847A642F9D800F0DDF8094D094B5E1B0B
:10195C00AB424FEAA60606D0002455F8043B0134EE
:10196C009847A642F9D870BD541B0008541B0008B8
:10197C00541B0008581B000870B5860747D0541E2E
:10198C00002A3ED00346CAB201E0013C39D303F829
:10199C00012B9D07F9D1032C2CD9CDB205EB0525D4
:1019AC000F2C1A4605EB054534D9A4F1100C2CF07C
:1019BC000F0603F1100EB6444FEA1C1CC2E9005589
:1019CC00C2E9025510327245F8D10CF1010214F043
:1019DC000C0F03EB021204F00F0C13D0ACF1040348
:1019EC0023F003030433134442F8045B9342FBD10A
:1019FC000CF003042CB1C9B21C4403F8011BA34224
:101A0C00FBD170BD64461346002CF4D1F9E70346B4
:101A1C001446C0E7A446E1E7844641EA000313F00C
:101A2C00030349D1403A23D30B6803604B684360EE
:101A3C008B688360CB68C3600B6903614B6943613E
:101A4C008B698361CB69C3610B6A03624B6A436226
:101A5C008B6A8362CB6AC3620B6B03634B6B43630E
:101A6C008B6B8363CB6BC36340304031403ADBD22A
:101A7C0030320BD30B6803604B6843608B68836018
:101A8C00CB68C36010301031103AF3D20C3205D34E
:101A9C0051F8043B40F8043B043AF9D2043208D024
:101AAC00D2071CBF11F8013B00F8013B01D30B8896
:101ABC0003806046704700BF082A13D38B07B1D050
:101ACC0010F00303AED0C3F10403D21ADB071CBF22
:101ADC0011F8013B00F8013BA4D331F8023B20F88C
:101AEC00023B9FE7043AD9D3013A11F8013B00F8C5
:101AFC00013BF9D20B7803704B7843708B78837071
:101B0C0060467047F8B500BFF8BC08BC9E467047ED
:0C1B1C00F8B500BFF8BC08BC9E4670473E
:101B28000000000000000000010203040607080985
:101B3800010202030405060708090A0B0C0D0E0F23
:041B48001010000079
:081B4C00D8FEFF7F010000003C
:041B5400750100080F
:041B58004D01000833
:0C1B5C0000127A000100000010000000E0
:0400000508000A05E0
:00000001FF
